:100000000080002099010000C5010000C50100002A
:10001000C5010000C5010000C5010000C5010000C8
:10002000C5010000C5010000C5010000C5010000B8
:10003000C5010000C5010000C50100009D070000CA
:10004000C5010000C5010000C5010000C501000098
:10005000C5010000C5010000C5010000C501000088
:10006000C5010000C5010000C5010000C501000078
:10007000C5010000C5010000C5010000C501000068
:10008000C5010000C5010000C5010000C501000058
:10009000C5010000C5010000C5010000C501000048
:1000A000C5010000C5010000C5010000C501000038
:1000B000C5010000C5010000C5010000C501000028
:1000C000C5010000C501000010B5054C237833B907
:1000D000044B13B10448AFF300800123237010BD1B
:1000E0008000002000000000F80A0000084B10B556
:1000F0001BB108480849AFF300800848036803B9FA
:1001000010BD074B002BFBD0BDE81040184700BFC7
:1001100000000000F80A0000840000207C0000209D
:1001200000000000154B002B08BF134B9D46A3F5A4
:10013000803A00218B460F461348144A121A00F0E9
:10014000A1FC0F4B002B00D098470E4B002B00D08A
:1001500098470020002104000D000D48002802D01F
:100160000C48AFF3008000F067FC2000290000F08D
:10017000C9FB00F04DFC00BF00000800008000201B
:10018000000000000000000080000020A00000200F
:100190000000000000000000064880470649074AAA
:1001A000074B9A42BEBF51F8040B42F8040BF8E724
:1001B000FFF7B8FF89020000040B000000000020D8
:1001C00080000020FEE700BF134BD3F8943003F00B
:1001D0000703032B1DD0042B18D0022B13D00F4B79
:1001E0001B680D4A0E49D2F80001D2F80821C0F36D
:1001F0000420C2F3082201320130B3FBF0F0B0FB5F
:10020000F2F008607047074B1B68EAE7064B1B6873
:10021000E7E74FF40043E4E700400E400C00002005
:100220000800002004000020000000200F4BD3F83D
:10023000943003F00703032B14D0042B0FD0022BB0
:100240000AD00B4B1868094BD3F80031C3F30423D1
:100250000133B0FBF3F07047064B1868F3E7064B29
:100260001868F0E74FF40040EDE700BF00400E4093
:100270000C0000200400002000000020014B186842
:10028000704700BF04000020034AD2F8883043F4CE
:100290007003C2F88830704700ED00E04FF4004072
:1002A000704700BF4FF47A70704700BF014B186869
:1002B000704700BF0000002008B500F00F03013BAD
:1002C000072B07D8DFE803F05F737E068904063446
:1002D000474B1B6F474B984242D0474B984208D040
:1002E000464B984211D1424BD3F8803003F00703BC
:1002F00004E03F4BD3F8883003F00703013B032BA6
:1003000003D8DFE803F02911043C002008BDFFF703
:100310005BFF374BD3F80021C2F3006201320123A7
:100320009340B0FBF3F008BDBDE80840FFF7BEBF47
:100330002F4BD3F85C3103F03003202B16D0302B39
:10034000C8D0102BC6D02B4B984209D02A4B9842CC
:10035000CFD02A4B9842C6D0BDE80840FFF79EBFD9
:10036000234BD3F8843003F00703C7E7214B9842AF
:10037000F6D0214B9842BCD0204B9842B3D0BDE878
:100380000840FFF78FBF1A4BD3F8943003F00703F0
:10039000023B022B9ED81A4AD35C164A9042DFD009
:1003A000154A9042A5D0154A9042A7D19BE7104B21
:1003B000D3F8803003F00703013B032BC3D8114A65
:1003C000D35CEAE70A4BD3F8843003F00703013B20
:1003D000032BB8D80C4AD35CDFE7054BD3F8883041
:1003E00003F00703013B032BADD8084AD35CD4E7E5
:1003F00000400E4003001C000500200002001A000F
:10040000AC0A0000B00A0000B40A0000B80A0000FC
:10041000C0F30323013B30B4092B13D8DFE803F00A
:10042000251D121221272A120523144D4FF4803462
:10043000134AD2F84431DB07C0F3043004D5284412
:100440008000016030BC7047D2F840311C42F6D0C9
:10045000D2F840311C42F7D1F1E70A4DC0F3043025
:10046000EDE7094DFAE7094DF8E7094DF6E7094DC3
:100470000124DDE7084D1024DAE700BF8007F21001
:1004800000400E400006F2108005F210800AF210C3
:100490000000F2100007F2104007F21000F478108C
:1004A000B0F5602F10B564D00ED9B0F5D01F3CD098
:1004B0001BD8B0F5A01F2BD0B0F5B01F67D0B0F59A
:1004C000901F20D0002010BDB0F5802F54D03CD913
:1004D000B0F5202F2ED0B0F5402F46D0B0F5002F2C
:1004E000F0D1BDE81040FFF7A1BEB0F5001F0AD063
:1004F000B0F5381F58D0B0F5E01FE3D13748BDE85C
:100500001040FFF7D9BE3648BDE81040FFF7D4BE13
:100510003448FFF7D1FE344BD3F82021012302F0F9
:100520000F029340B0FBF3F010BD2E48BDE8104021
:10053000FFF7C2BEFFF77AFE2B4BD3F81431C3F39B
:1005400004230133B0FBF3F010BD0028C9D0B0F58F
:10055000003FB7D1FFF76AFE234BD3F80831C3F34E
:1005600008230133B0FBF3F010BD1F4B1B6FDB07FB
:10057000B7D41E4B186810BDFFF758FE1A4BD3F8BE
:100580000C31C3F308230133B0FBF3F010BD134863
:10059000FFF792FE144BD3F82821012302F0030247
:1005A0009340B0FBF3F010BD0F4CD4F85C3103F076
:1005B0003003202B04D0302B06D0102B82D1D8E76B
:1005C000BDE81040FFF75ABEFFF730FED4F8003107
:1005D000C3F3042303FB000010BD00BF03001C0095
:1005E0000500200002001A0000400E40100000200C
:1005F000F0B545003AB12E189BBB1C4C3601344473
:1006000001268E4026602C18240104F1804407291D
:1006100004F5204415D84FEA810E67680F2606FAC4
:100620000EF627EA060702FA0EF63E4366603AB96E
:100630002844C3B90D4B0001034401228A401A60CB
:10064000F0BD01F18046083EA768B6004FF00F0EDE
:100650000EFA06FE27EA0E0702FA06F63E43A660E9
:10066000E5E7034CCAE7024BE5E700BF0CA00044F6
:100670000CA000460B4A5169136901F00F01C3F346
:10068000811343EA81038370136903F03F034370CE
:100690009169D36901F0F002C3F3031313430370AC
:1006A000704700BFD0FF0FE0CB4303F005035B00B2
:1006B000C360C160704700BF324AF8B504460023EA
:1006C000314840F6AA6741F205069442E7600D46BC
:1006D00023606660A3606361E364A0646367A367EB
:1006E000E36749D002F58062944247D0A3652B8A24
:1006F000AE7B2268287DA97C43F00103002E9BB2CB
:1007000043EA020314BF4FF48062002213432360C4
:100710002368002814BF4FF00052002213432360C7
:1007200019B1EB7C43F08003A3652B7B6868AE684E
:1007300043F48053636010B91448FFF7AFFE6B7B3E
:1007400001387600B0FBF6F0000260610BB11023B7
:10075000E360EA7DAB7D697D12051B0702F4E002D0
:1007600003F0E0431343236619B1236843F4803355
:1007700023602B78E360F8BD2365B7E72365A365A5
:10078000E365B4E700000140F9FF010040410500C6
:1007900003695B06FCD54163704700BF024A1368DA
:1007A00001331360704700BF9C000020F0B528485B
:1007B000284E294C294F87B00121FFF729FE2848F0
:1007C0000121FFF725FE27480121FFF721FE0FCE6B
:1007D0006D460FC596E803000023012685E8030057
:1007E00020466946ADF810308DF80D608DF8156023
:1007F0008DF80E600297FFF75FFF4FF00F330F2267
:10080000A36703203346626709210422FFF7F0FE45
:10081000334603200A210422FFF7EAFE3346022072
:100820000A210422FFF7E4FE3246334602200B2160
:10083000FFF7DEFEE36843F40063E360E36843F43C
:100840008063E36020460521FFF72EFF07B0F0BD6F
:1008500040410500BC0A000000040140D5DC320024
:1008600000250800003204002DE9F041234E471E08
:1008700000F1170817F8013F43B300250324AC40EB
:10088000E4B2A3090235F15C1D48FFF781FF082D92
:10089000F5D104241A488821FFF77AFF013CF9D1E9
:1008A0000325A540EDB2AB090234F15C1448FFF713
:1008B0006FFF082CF5D14745DCD1142410480021E6
:1008C000FFF766FF013CF9D1BDE8F08104240C4834
:1008D0008821FFF75DFF013CF9D1042408488821F5
:1008E000FFF756FF013CF9D1042405488821FFF7A2
:1008F0004FFF013CF9D14745BCD1DEE7EC0A0000CF
:10090000000401402DE9F041354BDC6C86B0240E2B
:100910006846FFF7AFFE8E2C5FD83249324AD1F8D5
:10092000B000324C4FF0501340F00405C1F8B05005
:100930002360136013631366C2F89030C2F8C030AE
:10094000C1F8B000274AD36A23F07F0343F02003A5
:10095000D3629DF80130012B04D1254A136843F07E
:1009600004031360FFF722FF2248234CFFF796FD94
:10097000A4FB0034A409013CB4F1807F2CD21F4DAC
:100980001F4E28686968AA68EB68DFF87CC074604D
:100990004FF0E0084FF0000E07276C468CF82380DC
:1009A000C6F808E037600FC428696969154D03C4AB
:1009B00006AC6846FFF758FF2A682B689B1AB3F508
:1009C0007A7FFAD30DF1FF3313F8012F82F0010281
:1009D000A3421A70F8D1ECE7FEE78F2CB9D1B1E74A
:1009E000B081E00F00400E4030A0004000A0004069
:1009F00064310E4050000200D34D6210D40A000052
:100A000010E000E09C00002000ED00E0FEE700BFE9
:100A100008B5074B044613B10021AFF30080054B26
:100A20001868836A03B198472046FFF7EFFF00BFBD
:100A300000000000F40A000070B50E4B0E4CE41AE2
:100A4000A41000251E46A54204D056F8253098472C
:100A50000135F8E700F01EF8084C094BE41AA41021
:100A600000251E46A54204D056F82530984701358A
:100A7000F8E770BD740000207400002078000020AA
:100A80007400002002440346934202D003F8011B85
:100A9000FAE77047F8B500BFF8BC08BC9E4670473F
:100AA000F8B500BFF8BC08BC9E46704704030200BE
:100AB0000302010A0302060A0302010A05000000FC
:100AC0000000000040420F0005010000000000008F
:100AD0000000000001000100010001000100010010
:100AE00001000100010001000100010088E88EEE14
:0C0AF00043000000140000200000000083
:080AFC0028F6FF7F0100000055
:100B040000800000005A6202C0EA2101C0EA21010B
:100B1400C0EA210100000000000000000000000005
:100B240000000000000000000000000000000000C1
:100B340000000000F00A00000000000000000000B7
:100B440000000000000000000000000000000000A1
:100B54000000000000000000000000000000000091
:100B64000000000000000000000000000000000081
:100B740000000000ED000000C900000000000000BB
:04000003000001995F
:00000001FF
