:100000000080002099010000C5010000C50100002A
:10001000C5010000C5010000C5010000C5010000C8
:10002000C5010000C5010000C5010000C5010000B8
:10003000C5010000C5010000C5010000F90E000067
:10004000C5010000C5010000C5010000C501000098
:10005000C5010000C5010000C5010000C501000088
:10006000C5010000C5010000C5010000C501000078
:10007000C5010000C5010000C5010000C501000068
:10008000C5010000C5010000C5010000C501000058
:10009000C5010000C5010000C5010000C501000048
:1000A000C5010000C5010000C5010000C501000038
:1000B000C5010000C5010000C5010000C501000028
:1000C000C5010000C501000010B5054C237833B907
:1000D000044B13B10448AFF300800123237010BD1B
:1000E00080000020000000003C110000084B10B50B
:1000F0001BB108480849AFF300800848036803B9FA
:1001000010BD074B002BFBD0BDE81040184700BFC7
:10011000000000003C110000840000207C00002052
:1001200000000000154B002B08BF134B9D46A3F5A4
:10013000803A00218B460F461348144A121A00F0E9
:10014000D9FF0F4B002B00D098470E4B002B00D04F
:1001500098470020002104000D000D48002802D01F
:100160000C48AFF3008000F09FFF2000290000F052
:1001700073FF00F085FF00BF000008000080002032
:10018000000000000000000080000020A00000200F
:100190000000000000000000064880470649074AAA
:1001A000074B9A42BEBF51F8040B42F8040BF8E724
:1001B000FFF7B8FF95020000481100000000002082
:1001C00080000020FEE700BF80B582B000AF00F0E5
:1001D0001DF878600A4BD3F808210A4B13401B0A1C
:1001E0003B603B6801337A68B2FBF3F37B60064AFD
:1001F0007B6813607B6818460837BD4680BD00BF2A
:1002000000400E4000FF01000800002080B483B0D1
:1002100000AF164BD3F8943003F00703032B08D03C
:10022000042B02D0022B08D00BE0114B1B687B6023
:100230000BE04FF400437B6007E00E4B1B687B60D4
:1002400003E00D4B1B687B6000BF084BD3F8003107
:1002500003F4F8531B0A01337A68B2FBF3F3184630
:100260000C37BD465DF8047B704700BF00400E4070
:1002700004000020000000200C00002080B400AF2B
:10028000034B1B681846BD465DF8047B704700BFF2
:100290000000002080B400AF054A054BD3F8883039
:1002A00043F47003C2F88830BD465DF8047B7047A4
:1002B00000ED00E080B400AF4FF400431846BD46A7
:1002C0005DF8047B704700BF80B400AF4FF47A73D1
:1002D0001846BD465DF8047B704700BF80B400AF90
:1002E000034B1B681846BD465DF8047B704700BF92
:1002F0000400002080B487B000AFF860B9607A6075
:10030000FB6803F10473DA00BB6813449B007B6154
:100310007B697A681A601C37BD465DF8047B7047BC
:1003200080B483B000AF78607B68012202FA03F3E7
:1003300018460C37BD465DF8047B704780B483B027
:1003400000AF054B1B687B607B6818460C37BD46C9
:100350005DF8047B704700BF1000002080B582B0BC
:1003600000AFFFF753FF7860064BD3F8003103F47A
:10037000F8531B0A01337A6802FB03F31846083767
:10038000BD4680BD00400E4080B582B000AF0D4834
:1003900000F022FA0346FB70FB78072B05D0092BEF
:1003A00007D1FFF733FF786006E0FFF7C7FF7860FB
:1003B00002E000237B6000BF7B6818460837BD461B
:1003C00080BD00BF06000C0080B584B000AF78602F
:1003D0007B68002B1CD11B4800F0FEF90346FB7222
:1003E00000BFFB7A013B072B23D801A252F823F070
:1003F000150400003304000033040000230400004F
:1004000033040000330400001B0400002B04000030
:10041000002312E00023FB600EE0FFF78FFFF8607F
:100420000AE0FFF72BFFF86006E0FFF797FFF860A0
:1004300002E00023FB6000BFFB6818461037BD4692
:1004400080BD00BF98002E0090B585B000AF7860E9
:100450000023BB607B68354A934206D0344A9342FE
:1004600003D0344A934200D000E000BF786800F027
:10047000B3F90346FB607B682C4A93420DD02C4AAB
:10048000934211D02B4A934200D014E02A4BD3F868
:10049000803003F00703FB600DE0274BD3F8843076
:1004A00003F00703FB6006E0234BD3F8883003F02A
:1004B0000703FB6000BFFB68042B2ED801A252F893
:1004C00023F000BF15050000D9040000E10400007E
:1004D000F1040000E9040000FFF7ECFEB8601FE043
:1004E000FFF7FCFEB8601BE0FFF7EEFEB86017E018
:1004F000FFF76AFE0446104BD3F8003103F0807317
:100500001B0E01331846FFF70BFF0346B4FBF3F352
:10051000BB6005E00023BB6002E00023BB6000BFBE
:10052000BB6818461437BD4690BD00BF03001C00D1
:100530000500200002001A0000400E4080B483B085
:1005400000AF78600A4BD3F8443103F00103002B6D
:1005500000D007E000BF064BD3F840217B68134072
:10056000002BF8D10C37BD465DF8047B704700BF07
:1005700000400E4080B586B000AF78600B46FB703F
:1005800000233B617B681B0A03F00F03013B092B2F
:1005900044D801A252F823F0C1050000CD050000A7
:1005A0001D0600001D060000C7050000D305000061
:1005B000DD0500001D060000E7050000F305000052
:1005C000184B7B6118E0184B7B6115E0174B7B6182
:1005D00012E0174B7B6101233B610DE0154B7B6102
:1005E00010233B6108E0144B7B614FF480333B6187
:1005F00002E0124B7B6100BF7B681B0B03F01F0303
:10060000FB603B69002B02D03869FFF797FFFB784E
:100610007869F9681A46FFF76DFE00E000BF1837E9
:10062000BD4680BD00400E40B0400E40C0400E4070
:10063000E0400E40E8400E40F0400E4050410E4079
:1006400080B584B000AF78607B6803F47813B3F5AD
:10065000602F00F0A580B3F5602F16D8B3F5802F7A
:1006600031D0B3F5802F05D8002B28D0B3F5003F4B
:100670003CD09EE0B3F5202F47D0B3F5402F00F0DB
:100680008B80B3F5002F2DD093E0B3F5D01F4BD066
:10069000B3F5D01F09D8B3F5A01F4FD0B3F5B01FE5
:1006A00063D0B3F5901F44D083E0B3F5001F6ED044
:1006B000B3F5381F78D0B3F5E01F51D079E0FFF7DC
:1006C000A5FDF86078E0FFF7A1FDF8603D4BD3F899
:1006D0000C213D4B13401B0A0133FA68B2FBF3F3C4
:1006E000FB6069E0FFF792FDF86065E0FFF78EFDC3
:1006F000F860344BD3F80821334B13401B0A013305
:10070000FA68B2FBF3F3FB6056E0FFF77FFDF86099
:100710002C4BD3F8143103F4F8531B0A0133FA6855
:10072000B2FBF3F3FB6047E02848FFF78DFEF8606B
:1007300042E02748FFF788FEF8603DE02348FFF7D6
:1007400083FEF8601F4BD3F8203103F00F031846E7
:10075000FFF7E6FD0246FB68B3FBF2F3FB602BE01C
:100760001C48FFF771FEF86026E01A48FFF76CFEA0
:10077000F860144BD3F8283103F003031846FFF751
:10078000CFFD0246FB68B3FBF2F3FB6014E01048B8
:10079000FFF75AFEF8600FE0FFF7F6FDF8600BE098
:1007A000FFF7CCFDF86007E00020FFF70DFEF860D2
:1007B00002E00023FB6000BFFB6818461037BD460F
:1007C00080BD00BF00400E4000FF010002001A0083
:1007D0000500200003001C0080B485B000AF7860E5
:1007E0000123FB737B6803F00F03BB60BB68013B15
:1007F000072B00F2B28001A252F823F01D0800007E
:100800004F0800007F0800005B090000C5080000D9
:10081000F50800005B09000019090000544BD3F8EB
:10082000943003F00703032B07D0042B02D0022BD4
:1008300006D008E00223FB7308E00323FB7305E006
:100840000423FB7302E00523FB7300BF88E0484BE1
:10085000D3F8803003F00703022B06D0042B07D017
:10086000012B08D10323FB7308E00223FB7305E08F
:100870000A23FB7302E00123FB7300BF70E03C4BD3
:10088000D3F8843003F00703013B032B16D801A2F1
:1008900052F823F0A5080000AB080000B7080000DC
:1008A000B10800000323FB730BE00223FB7308E095
:1008B0000A23FB7305E00623FB7302E00123FB73AD
:1008C00000BF4DE02A4BD3F8883003F00703022B1A
:1008D00006D0042B07D0012B08D10323FB7308E0BB
:1008E0000223FB7305E00A23FB7302E00123FB7381
:1008F00000BF35E01E4B1B6F03F00103002B04D03B
:10090000012B05D10923FB7305E00723FB7302E0EC
:100910000123FB7300BF23E0154BD3F85C3103F0D8
:100920003003102B0CD0102B02D8002B05D010E078
:10093000202B08D0302B09D00BE00123FB730BE0F8
:100940000723FB7308E00423FB7305E00823FB7314
:1009500002E00123FB7300BF02E00023FB7300BF32
:10096000FB7B18461437BD465DF8047B704700BF1B
:1009700000400E4080B485B000AF786039607B687D
:1009800003F1C063FB60FB683A681A601437BD4628
:100990005DF8047B704700BF80B485B000AF78601D
:1009A00039607B6803F18063FB60FB683A681A601A
:1009B0001437BD465DF8047B704700BF80B582B038
:1009C00000AF03463960FB71FB79002B0DD0FB793A
:1009D000012B0AD0FB79022B07D0FB79032B04D023
:1009E000FB79042B01D0FB79052BFA7913465B00C8
:1009F00013441B010C3303F1804303F520433A6891
:100A0000012101FA02F218461146FFF7C5FF083727
:100A1000BD4680BD80B582B000AF03463960FB7132
:100A2000FB79002B0DD0FB79012B0AD0FB79022B2F
:100A300007D0FB79032B04D0FB79042B01D0FB7981
:100A4000052BFA7913465B0013441B010C3303F1A9
:100A5000804303F520433A68012101FA02F2184667
:100A60001146FFF787FF0837BD4680BD90B585B0BA
:100A700000AFB9607B600346FB731346BB73FB7B1F
:100A8000002B0DD0FB7B012B0AD0FB7B022B07D068
:100A9000FB7B032B04D0FB7B042B01D0FB7B052BC2
:100AA000BB7B002B0DD07B68002B05D0FB7B184651
:100AB000B968FFF7AFFF04E0FB7B1846B968FFF7A2
:100AC0007DFFBB68072B1CD82A4CFA7B2948F97B91
:100AD0000B465B000B441B0103445968BB689B0039
:100AE00018460F238340DB430B40B97BB868800076
:100AF0008140194313465B0013441B012344596092
:100B000024E01C4CFA7B1B48F97B0B465B000B4432
:100B10001B01034408331968BB6803F18043083B99
:100B20009B0018460F238340DB431940B87BBB680A
:100B300003F18043083B9B0000FA03F3194313467B
:100B40005B0013441B01234408331960BB7B002B5B
:100B50000DD17B68002B05D0FB7B1846B968FFF7E9
:100B600059FF04E0FB7B1846B968FFF727FF1437ED
:100B7000BD4690BD00A0004080B485B000AF786055
:100B80001A4B5B69DBB203F00F03DBB29B00FB7314
:100B9000164B1B6903F0C0039B09DAB2FB7B1343BE
:100BA000FB737B68FA7B9A70104B1B69DBB203F016
:100BB0003F03DAB27B685A700C4B9B6903F0F00379
:100BC0001B09DBB21B01FB73084BDB6903F0F0036D
:100BD0001B09DAB2FB7B1343FB737B68FA7B1A7049
:100BE0001437BD465DF8047B704700BFD0FF0FE0AF
:100BF00080B586B000AFF860B9607A60BB68002B42
:100C000003D10A48FFF71CFDB860BB685A1E7B6819
:100C10005B00B2FBF3F37B617B691B027B61FB68CA
:100C20007A695A611837BD4680BD00BF4041050052
:100C300080B485B000AF78600B46FB707B680D4ACE
:100C4000934203D07B680C4A934200D100BFFB78EB
:100C5000DB43FB60FB6803F00503FB60FB685A00A5
:100C60007B68DA60FA787B68DA601437BD465DF835
:100C7000047B7047000001400004014080B582B051
:100C800000AF786039607B68364A934203D07B6856
:100C9000354A934200D100BF786800F067F87B685E
:100CA0001A683B681B8A43F001039BB219463B68F4
:100CB0009B7B002B02D04FF4806300E000230B43AA
:100CC0001A437B681A607B681A683B681B7D002B9F
:100CD00002D04FF0005300E000231A437B681A60F3
:100CE0003B689B7C002B07D03B68DB7C63F07F0379
:100CF000DBB21A467B689A653B681B7B43F48052E3
:100D00007B685A603B685A683B689B687868114604
:100D10001A46FFF76DFF3B685B7B002B02D07B68B8
:100D20001022DA603B689B7D1B0703F0E0423B68C2
:100D3000DB7D1B0503F4E0031A437B681A663B68FE
:100D40005B7D002B05D07B681B6843F480327B6899
:100D50001A603B681B781A467B68DA600837BD4624
:100D600080BD00BF000001400004014080B483B09A
:100D700000AF78607B68214A934203D07B68204AA9
:100D8000934200D100BF7B6840F6AA62DA607B68BC
:100D900000221A607B6841F205025A607B680022DB
:100DA0009A607B6800225A617B680022DA647B6863
:100DB000144A9A647B6800225A677B6800229A670B
:100DC0007B680022DA677B680C4A934203D07B6819
:100DD0000B4A934202D17B6800221A657B6800228D
:100DE0009A657B68064A934202D17B680022DA65E5
:100DF0000C37BD465DF8047B704700BF0000014022
:100E000000040140F9FF010080B483B000AF7860B6
:100E10000B46FB7000BF7B681B6903F04003002B8F
:100E2000F9D0FA787B685A630C37BD465DF8047BCD
:100E3000704700BF80B400AF044BDB6C1B0EDBB20D
:100E40001846BD465DF8047B704700BFB081E00FD7
:100E500080B586B000AF4FF050133B610023FB60BC
:100E6000FFF7E8FF0346FB723B461846FFF784FE98
:100E7000FB7A8E2B22D81D4BD3F8B0307B601B4AF7
:100E80007B6843F00403C2F8B03000237B610EE0BE
:100E900017483A69FB6842EA03017A6913465B0026
:100EA00013441B01034419607B6901337B617B6937
:100EB000052BEDD90D4A7B68C2F8B030FB7A8F2B39
:100EC00007D80A4A094BDB6A23F07F0343F020036B
:100ED000D3627B78012B05D1064A064B1B6843F091
:100EE000040313601837BD4680BD00BF00400E40AC
:100EF00000A0004064310E4080B400AF044B1B687A
:100F00000133034A1360BD465DF8047B704700BFA0
:100F10009C000020B0B586B000AF2B480121FFF740
:100F200029FB2A480121FFF725FB29480121FFF76A
:100F300021FB284B3C461D460FCD0FC495E803000E
:100F400084E8030001237B73234BBB6001237B7583
:100F500000233B820123BB733B4620481946FFF721
:100F60008DFE1E4B4FF00B329A671C4B0F225A67B7
:100F70000220082104220123FFF778FD0220092125
:100F800004220123FFF772FD02200621042201231F
:100F9000FFF76CFD0220072101220123FFF766FD08
:100FA0000E4A0E4BDB6843F40063D3600B4A0B4BD5
:100FB000DB6843F48063D36008480521FFF738FEFF
:100FC0001837BD46B0BD00BF4041050000250800F0
:100FD000003204001C110000D5DC32000004014086
:100FE00080B584B000AF03460A46FB711346BB715F
:100FF0000023FB73FB7B03481946FFF705FF1037FF
:10100000BD4680BD0004014080B500AF0648002108
:10101000FFF7FAFE04480021FFF7F6FE0248002120
:10102000FFF7F2FE80BD00BF0004014080B584B030
:1010300000AF78600023FB6006E000200021FFF78E
:10104000CFFFFB680133FB60FB680B2BF5DDFFF77F
:10105000DBFF1037BD4680BD80B582B000AFFFF723
:10106000F7FEFFF757FF01233B713B1D1846FFF7C3
:10107000DDFFFAE780B483B000AF7860FEE700BF21
:1010800008B5074B044613B10021AFF30080054BB0
:101090001868836A03B198472046FFF7EBFF00BF4B
:1010A000000000003811000070B50E4B0E4CE41A21
:1010B000A41000251E46A54204D056F825309847B6
:1010C0000135F8E700F01EF8084C094BE41AA410AB
:1010D00000251E46A54204D056F825309847013514
:1010E000F8E770BD74000020740000207800002034
:1010F0007400002002440346934202D003F8011B0F
:10110000FAE77047F8B500BFF8BC08BC9E467047C8
:10111000F8B500BFF8BC08BC9E467047050000004B
:101120000000000040420F00050100000000000028
:101130000000000043000000140000200000000038
:08114000E4EFFF7F0100000055
:10114800005A620200800000C0EA2101C0EA2101C1
:10115800C0EA2101000000000000000000000000BB
:101168000000000000000000000000000000000077
:101178000000000034110000000000000000000022
:101188000000000000000000000000000000000057
:101198000000000000000000000000000000000047
:1011A8000000000000000000000000000000000037
:1011B80000000000ED000000C90000000000000071
:04000003000001995F
:00000001FF
