S01200006932635F646973706C61792E7333378F
S11300000080002099010000C5010000C501000026
S1130010C5010000C5010000C5010000C5010000C4
S1130020C5010000C5010000C5010000C5010000B4
S1130030C5010000C5010000C5010000C5010000A4
S1130040C5010000C5010000C5010000C501000094
S1130050C5010000C5010000C5010000C501000084
S1130060C5010000C5010000C5010000C501000074
S1130070C5010000C5010000C5010000C501000064
S1130080C5010000C5010000C5010000C501000054
S1130090C5010000C5010000C5010000C501000044
S11300A0C5010000C5010000C5010000C501000034
S11300B0C5010000C5010000C5010000C501000024
S11300C0C5010000C501000010B5054C237833B903
S11300D0044B13B10448AFF300800123237010BD17
S11300E080000020000000002C2B0000084B10B5FD
S11300F01BB108480849AFF300800848036803B9F6
S113010010BD074B002BFBD0BDE81040184700BFC3
S1130110000000002C2B0000840000207C00002044
S113012000000000154B002B08BF134B9D46A3F5A0
S1130130803A00218B460F461348144A121A02F0E3
S1130140BDFC0F4B002B00D098470E4B002B00D06A
S113015098470020002104000D000D48002802D01B
S11301600C48AFF3008002F083FC2000290002F069
S113017007FC02F069FC00BF0000080000800020BA
S1130180000000000000000080000020B0000020FB
S11301900000000000000000064880470649074AA6
S11301A0074B9A42BEBF51F8040B42F8040BF8E720
S11301B0FFF7B8FFA9020000382B00000000002060
S11301C080000020FEE700BF80B582B000AF00F0E1
S11301D027F878600A4BD3F808210A4B13401B0A0E
S11301E03B603B6801337A68B2FBF3F37B60064AF9
S11301F07B6813607B6818460837BD4680BD00BF26
S113020000400E4000FF01000800002080B400AF51
S1130210024B1846BD465DF8047B7047005A6202E3
S113022080B483B000AF164BD3F8943003F00703C7
S1130230032B08D0042B02D0022B08D00BE0114B67
S11302401B687B600BE04FF400437B6007E00E4BC0
S11302501B687B6003E00D4B1B687B6000BF084B91
S1130260D3F8003103F4F8531B0A01337A68B2FB64
S1130270F3F318460C37BD465DF8047B704700BFA6
S113028000400E4004000020000000200C0000206C
S113029080B400AF034B1B681846BD465DF8047B71
S11302A0704700BF0000002080B400AF054A054B32
S11302B0D3F8883043F47003C2F88830BD465DF843
S11302C0047B704700ED00E080B400AF4FF40043BE
S11302D01846BD465DF8047B704700BF80B400AF8C
S11302E04FF47A731846BD465DF8047B704700BF2F
S11302F080B400AF034B1B681846BD465DF8047B11
S1130300704700BF0400002080B487B000AFF860DD
S1130310B9607A60FB6803F10473DA00BB681344C4
S11303209B007B617B697A681A601C37BD465DF867
S1130330047B704780B485B000AF786039607B6817
S113034003F10473DA003B6813449B00FB60FB6811
S11303501B6818461437BD465DF8047B704700BF20
S113036080B483B000AF78607B68012202FA03F3A3
S113037018460C37BD465DF8047B704780B584B0E1
S113038000AF78600123FB607B68124A934204D873
S11303900023FB600023BB6008E07B680E4A9342A5
S11303A002D80123BB6001E00223BB600B4810218B
S11303B0FA68FFF7A9FF0949084BD3F8003123F085
S11303C08072BB681B061343C1F800311037BD4669
S11303D080BD00BF0048E8010090D00300400E40FB
S11303E080B483B000AF054B1B687B607B68184604
S11303F00C37BD465DF8047B704700BF1000002039
S113040080B582B000AFFFF70BFF7860064BD3F8DE
S1130410003103F4F8531B0A01337A6802FB03F337
S113042018460837BD4680BD00400E4080B582B0F6
S113043000AF0D4800F0CEFA0346FB70FB78072BA3
S113044005D0092B07D1FFF7EBFE786006E0FFF734
S1130450C7FF786002E000237B6000BF7B6818461A
S11304600837BD4680BD00BF06000C0080B584B0CF
S113047000AF78607B68002B1CD11B4800F0AAFAFF
S11304800346FB7200BFFB7A013B072B23D801A272
S113049052F823F0B9040000D7040000D704000088
S11304A0C7040000D7040000D7040000BF04000004
S11304B0CF040000002312E00023FB600EE0FFF7EE
S11304C08FFFF8600AE0FFF7E3FEF86006E0FFF74D
S11304D097FFF86002E00023FB6000BFFB6818464A
S11304E01037BD4680BD00BF98002E0080B485B093
S11304F000AF78603960114B5B6803F04073FB60B8
S11305007B680F4A934202D80023FB6005E07B68B6
S11305100C4A934201D80123FB60FB681B06FB6075
S11305200649064B5B6823F04072FB6813434B603B
S11305301437BD465DF8047B704700BF00000E40D1
S113054040787D01005A620280B582B000AF0D4B45
S11305501B6C002B14BF01230023FB71094B41F6D4
S113056071321A64FFF752FE034618460021FFF762
S1130570BDFFFB79002B02D0024B00221A6408371E
S1130580BD4680BD00000E4080B584B000AF7860E9
S113059039600C4B1B6C002B14BF01230023FB732D
S11305A0084B41F671321A6478683968FFF79EFF88
S11305B0FB7B002B02D0034B00221A641037BD468C
S11305C080BD00BF00000E4080B487B000AF7860EB
S11305D00F237B617B6803333B617B69FB60FA68B3
S11305E03B69934228BF1346BB60BB681B07BB60D3
S11305F0BB6818461C37BD465DF8047B704700BFD6
S113060080B400AF044B5B6A03F030031B09184647
S1130610BD465DF8047B704700400E4080B483B053
S113062000AF78600649064B5B6A23F030027B68B2
S11306301B0113434B620C37BD465DF8047B7047C6
S113064000400E4090B585B000AF78600023BB60D9
S11306507B68354A934206D0344A934203D0344AE5
S1130660934200D000E000BF786800F0B3F903467D
S1130670FB607B682C4A93420DD02C4A934211D0E4
S11306802B4A934200D014E02A4BD3F8803003F075
S11306900703FB600DE0274BD3F8843003F0070316
S11306A0FB6006E0234BD3F8883003F00703FB60BC
S11306B000BFFB68042B2ED801A252F823F000BF20
S11306C011070000D5060000DD060000ED0600005D
S11306D0E5060000FFF7F8FDB8601FE0FFF708FE2D
S11306E0B8601BE0FFF7FAFDB86017E0FFF76CFD98
S11306F00446104BD3F8003103F080731B0E013312
S11307001846FFF72DFE0346B4FBF3F3BB6005E088
S11307100023BB6002E00023BB6000BFBB68184637
S11307201437BD4690BD00BF03001C000500200027
S113073002001A0000400E4080B483B000AF78601D
S11307400A4BD3F8443103F00103002B00D007E037
S113075000BF064BD3F840217B681340002BF8D12F
S11307600C37BD465DF8047B704700BF00400E4067
S113077080B586B000AF78600B46FB7000233B6108
S11307807B681B0A03F00F03013B092B44D801A229
S113079052F823F0BD070000C90700001908000043
S11307A019080000C3070000CF070000D9070000A4
S11307B019080000E3070000EF070000184B7B61F5
S11307C018E0184B7B6115E0174B7B6112E0174B67
S11307D07B6101233B610DE0154B7B6110233B6181
S11307E008E0144B7B614FF480333B6102E0124B11
S11307F07B6100BF7B681B0B03F01F03FB603B693D
S1130800002B02D03869FFF797FFFB787869F96805
S11308101A46FFF779FD00E000BF1837BD4680BDDA
S113082000400E40B0400E40C0400E40E0400E403C
S1130830E8400E40F0400E4050410E4080B584B078
S113084000AF78607B6803F47813B3F5602F00F091
S1130850A580B3F5602F16D8B3F5802F31D0B3F54A
S1130860802F05D8002B28D0B3F5003F3CD09EE064
S1130870B3F5202F47D0B3F5402F00F08B80B3F5AC
S1130880002F2DD093E0B3F5D01F4BD0B3F5D01F7C
S113089009D8B3F5A01F4FD0B3F5B01F63D0B3F59B
S11308A0901F44D083E0B3F5001F6ED0B3F5381F1A
S11308B078D0B3F5E01F51D079E0FFF7B1FCF860D0
S11308C078E0FFF7ADFCF8603D4BD3F80C213D4BCD
S11308D013401B0A0133FA68B2FBF3F3FB6069E0CF
S11308E0FFF79EFCF86065E0FFF79AFCF860344B74
S11308F0D3F80821334B13401B0A0133FA68B2FBC7
S1130900F3F3FB6056E0FFF78BFCF8602C4BD3F855
S1130910143103F4F8531B0A0133FA68B2FBF3F3FE
S1130920FB6047E02848FFF78DFEF86042E0274867
S1130930FFF788FEF8603DE02348FFF783FEF86088
S11309401F4BD3F8203103F00F031846FFF708FDBF
S11309500246FB68B3FBF2F3FB602BE01C48FFF795
S113096071FEF86026E01A48FFF76CFEF860144B3D
S1130970D3F8283103F003031846FFF7F1FC0246CD
S1130980FB68B3FBF2F3FB6014E01048FFF75AFE78
S1130990F8600FE0FFF74AFDF8600BE0FFF720FD79
S11309A0F86007E00020FFF761FDF86002E0002333
S11309B0FB6000BFFB6818461037BD4680BD00BF12
S11309C000400E4000FF010002001A000500200054
S11309D003001C0080B485B000AF78600123FB7372
S11309E07B6803F00F03BB60BB68013B072B00F27D
S11309F0B28001A252F823F0190A00004B0A000049
S1130A007B0A0000570B0000C10A0000F10A000035
S1130A10570B0000150B0000544BD3F8943003F02F
S1130A200703032B07D0042B02D0022B06D008E0C7
S1130A300223FB7308E00323FB7305E00423FB7329
S1130A4002E00523FB7300BF88E0484BD3F88030F5
S1130A5003F00703022B06D0042B07D0012B08D187
S1130A600323FB7308E00223FB7305E00A23FB73F3
S1130A7002E00123FB7300BF70E03C4BD3F88430E9
S1130A8003F00703013B032B16D801A252F823F00D
S1130A90A10A0000A70A0000B30A0000AD0A000082
S1130AA00323FB730BE00223FB7308E00A23FB73AD
S1130AB005E00623FB7302E00123FB7300BF4DE056
S1130AC02A4BD3F8883003F00703022B06D0042BFB
S1130AD007D0012B08D10323FB7308E00223FB7327
S1130AE005E00A23FB7302E00123FB7300BF35E03A
S1130AF01E4B1B6F03F00103002B04D0012B05D107
S1130B000923FB7305E00723FB7302E00123FB7356
S1130B1000BF23E0154BD3F85C3103F03003102BF6
S1130B200CD0102B02D8002B05D010E0202B08D0BD
S1130B30302B09D00BE00123FB730BE00723FB737D
S1130B4008E00423FB7305E00823FB7302E00123A0
S1130B50FB7300BF02E00023FB7300BFFB7B18465E
S1130B601437BD465DF8047B704700BF00400E405B
S1130B7080B588B000AF78600B46FB700323FB613F
S1130B800323FB7600233B617B6803F00F03FB60C8
S1130B90FB68013B072B00F2038101A252F823F00A
S1130BA0C10B00005D0C0000790C0000A10D0000D9
S1130BB06B0C0000110D0000A10D00002F0D0000B2
S1130BC0FB78023B082B00F2ED8001A252F823F0DF
S1130BD0F50B0000FF0B0000090C0000190C0000CD
S1130BE0A50D0000A50D0000A50D0000A50D000039
S1130BF0A50D00000423FB610023FB7614E003230E
S1130C00FB610123FB760FE00223FB610223FB76E9
S1130C106848FFF7B3FB07E00123FB610323FB767E
S1130C206448FFF7ABFB00BFFB7E1846012101229D
S1130C3000F048F9FFF788FC5F4AFB6953675F4897
S1130C40FFF7FCFD03461846FFF798FBFFF7BCFAD5
S1130C50B860B8680021FFF797FCA8E03B69002B57
S1130C6001D03B6900E0564B3B613B69002B01D04E
S1130C703B6900E0534B3B613B69002B01D03B696E
S1130C8000E0514B3B61FB78013B092B00F28C8067
S1130C9001A252F823F000BFC10C0000C70C0000F1
S1130CA0D70C0000A90D0000A90D0000E70C0000FE
S1130CB0A90D0000A90D0000A90D0000030D0000FE
S1130CC000237B6120E000200121012200F0FAF8DA
S1130CD002237B6118E001200121012200F0F2F8D7
S1130CE001237B6110E0FFF76FFA03461846FFF714
S1130CF045FB364800210122FFF706FB03237B61F5
S1130D0002E004237B6100BF3B697A691A604EE00C
S1130D10FB78072B02D0092B04D048E0264B002295
S1130D201A6703E0244B01221A6700BF3FE0FB78F7
S1130D30013B072B3AD801A252F823F05D0D0000C5
S1130D40AD0D0000AD0D0000730D0000AD0D0000F1
S1130D50AD0D0000630D0000830D000000237B61D6
S1130D6012E004200121012200F0ACF801237B6190
S1130D700AE002200121012200F0A4F802237B6191
S1130D8002E003237B6100BF0B490B4BD3F85C31BA
S1130D9023F030027B691B011343C1F85C3106E088
S1130DA000BF04E000BF02E000BF00E000BF203746
S1130DB0BD4680BD0148E80100400E400005080022
S1130DC080400E4088400E4084400E40B0400E40AB
S1130DD0B0B584B000AF78601120FFF7FBFD0220AE
S1130DE00021012200F06EF87B685B7883F0010338
S1130DF0DBB2002B0ED07B689B7883F00103DBB25F
S1130E00002B07D07B68DB7883F00103DBB2002B77
S1130E1000D000BF0023FB607B681B7C022B01D148
S1130E200123FB602549254B5B6A23F00102FB6823
S1130E3013434B627B681B78214808211A46FFF74D
S1130E4063FA1E491D4B9B6A23F007037A68D27A22
S1130E5013438B6219497B689B88DB027A68527A58
S1130E601343CB62154D154B1B6B03F07F627B68FC
S1130E70DB88DB0213437A68927A1A437B681B7A15
S1130E80DB0142EA03047B681B7A1846FFF79CFBEC
S1130E90034623432B6309497B685B7B1A037B6806
S1130EA09B7B1B0113437A68D27B1A437B681B7BB1
S1130EB01B0413434B631037BD46B0BD00400E40C6
S1130EC024400E4080B588B000AF0346FB710B464A
S1130ED0BB7113467B71FB79042B00F2A58001A240
S1130EE052F823F0410F00002F0F00000B0F0000F9
S1130EF0F90E00001D0F000001237B6102233B61FA
S1130F000123FB610023BB6125E004237B610823EB
S1130F103B610323FB610223BB611CE010237B6163
S1130F2020233B610523FB610423BB6113E04023C1
S1130F307B6180233B610723FB610623BB610AE0DD
S1130F404FF480737B614FF400733B610923FB61B1
S1130F500823BB6100BFBB79002B59D00023FB736E
S1130F60FB79022B0FD1FFF74BFB0346002B0AD171
S1130F700123FB732E4B5B6A03F00103002B02D0A9
S1130F800120FFF74BFB2A4A7B69136600BF2948FF
S1130F90B969FFF7CFF90346002BF8D07B79002B12
S1130FA035D000BF2348F969FFF7C4F90346002B85
S1130FB0F8D0FB79022B2AD1FB7B002B27D01C4BCA
S1130FC05B6A03F00103002B05D0022020210122DB
S1130FD000F036F903E00220002100F0E7F80220D7
S1130FE000F02AF8B860022000210122FFF76AFF0E
S1130FF00220B96800F05AF80D4A7B69136600BFF5
S11310000C48F969FFF796F90346002BF8D00CE079
S1131010074A3B69136600BF0648B969FFF78AF9B6
S11310200346002BF8D100E000BF2037BD4680BD49
S113103000400E4090400E4080B485B000AF03469F
S1131040FB71FB79013B032B23D801A252F823F057
S113105061100000851000006D1000007910000080
S1131060114B1B6AC3F30803FB6015E00E4B1B69AD
S113107003F07F03FB600FE00B4B9B6903F07F03DE
S1131080FB6009E0084BD3F89C30C3F30A03FB6010
S113109002E00023FB6000BFFB6818461437BD461E
S11310A05DF8047B704700BF00400E4080B584B0FB
S11310B000AF03463960FB71FB79013B032B6AD80F
S11310C001A252F823F000BFD91000005B11000008
S11310D007110000311100003B68C3F308033B60B3
S11310E000BF2F481A21FFF725F90346002BF8D13A
S11310F02C492C4B1B6A23F4FF7323F001033A6839
S113110013430B6248E03B6803F07F033B6000BF7E
S113111023481821FFF70EF90346002BF8D1214983
S1131120204B1B6923F07F023B6813430B6133E0C0
S11311303B6803F07F033B6000BF19481921FFF7A8
S1131140F9F80346002BF8D11649164B9B6923F096
S11311507F023B6813438B611EE0124BD3F890303F
S1131160104A104B5B6A23F0300343F010035362C0
S11311703B6803F4F063DB091846FFF725FAF860CF
S11311800849084B1A6B084B13403A681A43FB682A
S113119013430B6300E000BF1037BD4680BD00BFA2
S11311A040410E4000400E4000F8FF0F80B584B06F
S11311B000AF03460A46FB711346BB71FFF720FAE2
S11311C00346002B03D14FF44003FB6016E0BB79C8
S11311D0202B04D0302B0AD0002B04D00BE04FF48A
S11311E00003FB600AE04FF44003FB6006E04FF4A9
S11311F04003FB6002E0104BFB6000BF00BF0F4BDD
S1131200D3F89020FB681A40FB689A42F7D1FB6838
S113121003F48003002B0AD0084BD3F8A03003F466
S11312208063002B14BF01230023DBB200E0012301
S113123018461037BD4680BDFF03E10700400E404D
S113124080B582B000AF0346FB710B46BB711346F9
S11312507B71FB79022B00D016E0BB79002B07D001
S11312600C4B4FF48062C3F8A8200A4ABB7953663A
S11312707B79002B07D0FA79BB7910461946FFF722
S113128095FF034601E000BF012318460837BD4619
S113129080BD00BF00400E4080B487B000AFF8604E
S11312A0B9607A60FB6803F10473DA00BB68134425
S11312B09B007B617B697A681A601C37BD465DF8C8
S11312C0047B704780B485B000AF786039607B6878
S11312D003F10473DA003B6813449B00FB60FB6872
S11312E01B6818461437BD465DF8047B704700BF81
S11312F080B400AF034B1B6DDBB21846BD465DF8EE
S1131300047B7047B081E00F80B489B000AF284BF4
S1131310FB61284BBB61284B7B61284B3B61284B0D
S1131320FB60284BBB60284BD3F86C31B3F1FF3F13
S113133037D0FB695B687B60FB691B683B603B687B
S11313407A681A60BB695B687B60BB691B683B6039
S11313503B687A681A607B695B687B607B691B68A1
S11313603B603B687A681A603B695B687B603B69F9
S11313701B683B603B687A681A60FB685B687B604B
S1131380FB681B683B603B687A681A60BB685B68F3
S11313907B60BB681B683B603B687A681A6001230A
S11313A000E0002318462437BD465DF8047B7047EF
S11313B03880E00F4080E00F4880E00F5080E00F5D
S11313C05880E00F6080E00FB081E00F80B584B0FA
S11313D000AF244A234BDB6E43F08073D36622486C
S11313E00021FFF76FFFF860FB68002B03D0042097
S11313F000F05CFC02E0002000F058FC194A194B94
S11314001B6E23F0C0431366164A164BDB6C43F085
S11314100603D3643B1D184601F0DAF87B79012BEF
S11314201DD13B79022B1AD8104B1B78002B16D1F7
S11314300F4A0F4B1B6843F001031360094B1B6EEB
S1131440BB60BA680B4B1340BB60BA680A4B1343CA
S1131450BB60044ABB681366044B01221A70103740
S1131460BD4680BD00300E404C300E409C00002034
S113147044300E40000F0EF0B4C0400B80B48BB06B
S113148000AF01237B627B6A1B053B62314BDB6C43
S113149003F470631B0AFB612F4B1B881A462E4B07
S11314A01B8828335B08134403F12801FB695A1C89
S11314B013469B001344B1FBF3F3013BBB61BB69CF
S11314C07B6107233B613A697B69934228BF1346DA
S11314D0BB61BB691B06BB611E481E4BDB6C23F062
S11314E0EE62B9693B6A0B431343C3641B4B1B880D
S11314F01BB2002B28DB194B1B88FB81FA89FB8963
S113150028335B08134403F12802FB6901335900B3
S1131510FB6901335B080B44B2FBF3F3BB60BB68AC
S11315207B6007233B603A687B68934228BF13467D
S1131530BB60BB681B01BB600649064B1B6D23F0F7
S11315407002BB6813430B652C37BD465DF8047B02
S1131550704700BF00300E409E000020A200002013
S113156080B483B000AF78600B467B807B689AB20E
S1131570044B1A80044A7B8813800C37BD465DF8FF
S1131580047B70479E000020A200002080B483B03A
S113159000AF0346FB71FB79002B02D0012B04D072
S11315A007E0064B064A9A6503E0044B054A9A6530
S11315B000BF0C37BD465DF8047B704700300E4019
S11315C077402057372110B780B584B000AF034669
S11315D0FB710B46BB7113467B71FFF789FE034613
S11315E0FB72FB7A032B10D8294BD3F87C31FB60B8
S11315F0FB79002B05D0FB6803F47F431B0AFB60D7
S11316002CE0FB68DBB2FB6028E0214BD3F880318F
S1131610FB60BB79032B1FD801A252F823F000BF53
S1131620311600003916000045160000511600005E
S1131630FB68DBB2FB6011E0FB6803F47F431B0A29
S1131640FB600BE0FB6803F47F031B0CFB6005E00D
S1131650FB681B0EFB6001E0002315E07B79002B87
S113166011D1FB681B03FB60FB6823F47043002B60
S113167001D0002308E00749064BDB6E23F47042D7
S1131680FB681343CB66012318461037BD4680BD63
S1131690B081E00F00300E4080B489B000AFF86034
S11316A0B96011461A460B46FB711346BB71002301
S11316B0FB610023BB61BB791A02FB79002B01D0CB
S11316C0012300E0002313437B617B6940F2011294
S11316D093422BD0B3F5817F07D2012B19D0012B74
S11316E04BD3B3F5807F55D07BE040F20122934287
S11316F029D040F20122934203D8B3F5007F56D09B
S11317006FE0B3F5407F5FD040F20132934227D0BF
S113171067E0394BD3F87431FB61FB6903F47F4311
S11317201B0ABB61FB69DBB2FB615AE0324BD3F8A5
S11317307431FB61FB691B0EBB61FB6903F47F031E
S11317401B0CFB614DE02C4BD3F87831FB61FB693A
S113175003F47F431B0ABB61FB69DBB2FB6140E01E
S1131760254BD3F87831FB61FB691B0EBB61FB6928
S113177003F47F031B0CFB6133E01F4BD3F86C3184
S1131780FB61FB6903F47F431B0ABB61FB69DBB2AA
S1131790FB6126E0184BD3F86C31FB61FB691B0E2F
S11317A0BB61FB6903F47F031B0CFB6119E0124B63
S11317B0D3F87031FB61FB6903F47F431B0ABB61FF
S11317C0FB69DBB2FB610CE00B4BD3F87031FB61BE
S11317D0FB691B0EBB61FB6903F47F031B0CFB61FC
S11317E000BFFB68FA691A60BB68BA691A602437DB
S11317F0BD465DF8047B7047B081E00F80B584B0CE
S113180000AF0346FB7100BF274B9B6F03F001033E
S1131810002BF9D1244B1B6C03F00303FB60FB6822
S1131820002B04D021480D210122FFF735FDFB6870
S1131830DBB2FA799A4209D1FB79002B05D11B4816
S11318400D210022FFF728FD2AE029E0FB68002B88
S113185005D1FB79012B02D1154B02221A7000BF6E
S1131860114B9B6F03F00103002BF9D10E490E4B72
S11318701B6C23F00302FB7913430B6400BF0A4B78
S11318809B6F03F00103002BF9D1FB79002B14BFEC
S113189001230023DBB205480D211A46FFF7FCFCA7
S11318A01037BD4680BD00BF00300E4054300E409E
S11318B09C00002080B584B000AF78603F4B0222CA
S11318C09A633E4B9B6B03F00F03022B01D0002362
S11318D06FE0FFF719FD7B685B78012B7B68DB8881
S11318E04A2B02D80023FB6015E07B68DB88B3F544
S11318F0FA7F03D24FF08053FB600CE07B68DB88F7
S113190040F6C312934203D84FF00053FB6002E049
S11319104FF04053FB602948284BDB6C23F04053C5
S113192023F001037A68928912B2002A01DB0121B3
S113193000E00021FA680A431343C364FFF746FD3D
S11319407B681B891A467B689B891BB21046194623
S1131950FFF706FE7B689A88194B1A807B689B8880
S1131960184600F037F97B689B7B1846FFF70EFE9C
S11319707B685B8818460121012200F025F80346A4
S113198083F00103DBB2002B01D0002311E07B685C
S11319909B7A002B14BF01230023DBB209480521E5
S11319A01A46FFF779FC7B685B781846FFF726FF39
S11319B0012318461037BD4680BD00BF00300E40DD
S11319C0A00000203C300E4080B590B000AF78609D
S11319D00B46FB701346BB700023FB6300237B6341
S11319E000233B6200237B620023BB610023FB6175
S11319F000233B6100237B610023BB817B68B3F53B
S1131A00E16F06D37B6840F6B832934201D80123D4
S1131A1000E0002387F8333097F8333003F00103F4
S1131A2087F8333097F8333083F00103DBB2002BAF
S1131A3001D00023C6E07B68B3F5E16F8CBF0123BE
S1131A40002387F8323097F83230002B0AD04FF455
S1131A50E163FB6340F6B8337B637A6BFB6BD31AA9
S1131A60BB6309E04FF49663FB634FF4E1637B636C
S1131A707A6BFB6BD31ABB6397F83230002B0CD014
S1131A80524BD3F86831FB61FB691B0E7B61FB6928
S1131A9003F47F031B0CFB610BE04C4BD3F8683160
S1131AA0FB61FB6903F47F431B0A7B61FB69DBB2C7
S1131AB0FB61474BDB6C03F040531B0FDBB23B7302
S1131AC03B7B07F1180007F1100197F83220FFF76C
S1131AD0E3FD7A68FB6BD31A7969FA698A1A02FB07
S1131AE003F2BB6BB2FBF3F37B627A6AFB691344C8
S1131AF07B627A68FB6BD31A3969BA698A1A02FB6A
S1131B0003F2BB6BB2FBF3F33B623A6ABB69134467
S1131B103B627A6A7B699A420BD87A6AFB699A4279
S1131B2007D33A6A3B699A4203D83A6ABB699A4234
S1131B3001D2002346E0BB78002B12D02449244B69
S1131B40DB6D23F4FE4323F002037A6A12021A4384
S1131B5097F83230002B01D0022300E00023134316
S1131B60CB65FB78002B2CD03B7B97F832201046BA
S1131B7019460022FFF728FD034683F00103DBB278
S1131B80002B01D000231DE03B6AFB62E723BB620C
S1131B90BA6AFB6A934228BF13463B620C490C4B5A
S1131BA05B6E23F4FF7323F001033A6A52001A4375
S1131BB097F83230002B01D0012300E000231343B7
S1131BC04B66012318464037BD4680BDB081E00F07
S1131BD000300E4080B584B000AF78600023FB6015
S1131BE0314B1B6F03F00703BB602F4BDB6C03F01F
S1131BF00103002B15D0BB68012B12D97B68132B72
S1131C0002D80423FB600BE07B68132B05D97B68A7
S1131C10272B02D80823FB6002E01023FB602DE091
S1131C202CE0214BDB6C03F00103002B15D1BB68C6
S1131C30012B12D87B68092B02D80423FB600BE02C
S1131C407B68092B05D97B68132B02D80823FB601A
S1131C5002E01023FB6011E010E0134BDB6C03F097
S1131C600103002B0AD0BB68012B07D87B68272B04
S1131C7002D80823FB6001E01023FB60FB68013BF2
S1131C80FB60FB681A02FB681B031343FB600649F5
S1131C90054BDB6C23F47F42FB681343CB64FFF7F3
S1131CA0EDFB1037BD4680BD00300E4080B584B0DA
S1131CB000AF0346FB710F480021FFF703FBF860F8
S1131CC0FB68002B02D1FB79012B02D9FB68002BA6
S1131CD000D000BF0849084B1B6F23F00702FB79B3
S1131CE013430B67054B1B881846FFF773FF103728
S1131CF0BD4680BD4C300E4000300E40A000002098
S1131D0080B485B000AF786039607B6803F1C0634C
S1131D10FB60FB683A681A601437BD465DF8047BC3
S1131D20704700BF80B485B000AF786039607B68CD
S1131D3003F18063FB60FB683A681A601437BD46A0
S1131D405DF8047B704700BF80B582B000AF0346E6
S1131D503960FB71FB79002B0DD0FB79012B0AD084
S1131D60FB79022B07D0FB79032B04D0FB79042BDE
S1131D7001D0FB79052BFA7913465B0013441B0150
S1131D800C3303F1804303F520433A68012101FA3F
S1131D9002F218461146FFF7C5FF0837BD4680BD5D
S1131DA080B582B000AF03463960FB71FB79002B2C
S1131DB00DD0FB79012B0AD0FB79022B07D0FB79DC
S1131DC0032B04D0FB79042B01D0FB79052BFA7982
S1131DD013465B0013441B010C3303F1804303F5EA
S1131DE020433A68012101FA02F218461146FFF72E
S1131DF087FF0837BD4680BD90B585B000AFB96098
S1131E007B600346FB731346BB73FB7B002B0DD037
S1131E10FB7B012B0AD0FB7B022B07D0FB7B032B24
S1131E2004D0FB7B042B01D0FB7B052BBB7B002B5D
S1131E300DD07B68002B05D0FB7B1846B968FFF7F3
S1131E40AFFF04E0FB7B1846B968FFF77DFFBB6872
S1131E50072B1CD82A4CFA7B2948F97B0B465B00DC
S1131E600B441B0103445968BB689B0018460F23AD
S1131E708340DB430B40B97BB86880008140194341
S1131E8013465B0013441B012344596024E01C4C9B
S1131E90FA7B1B48F97B0B465B000B441B01034494
S1131EA008331968BB6803F18043083B9B0018465C
S1131EB00F238340DB431940B87BBB6803F18043A5
S1131EC0083B9B0000FA03F3194313465B001344D9
S1131ED01B01234408331960BB7B002B0DD17B68A5
S1131EE0002B05D0FB7B1846B968FFF759FF04E0C7
S1131EF0FB7B1846B968FFF727FF1437BD4690BD32
S1131F0000A0004080B487B000AFF860B9607A6088
S1131F10FB6803F10473DA00BB6813449B007B6124
S1131F207B697A681A601C37BD465DF8047B70478C
S1131F3080B485B000AF786039607B6803F1C0631A
S1131F40FB60FB683A681A601437BD465DF8047B91
S1131F50704700BF80B485B000AF786039607B689B
S1131F6003F18063FB60FB683A681A601437BD466E
S1131F705DF8047B704700BF80B584B000AFF860A3
S1131F80B9607A60F868B968FFF7E4FFF8687968BF
S1131F90FFF7CEFF1037BD4680BD00BF80B588B0C7
S1131FA000AFF860B9607A60FB707B68002B00D1E9
S1131FB05FE0FB681B6823F44072FB681A60FA68F0
S1131FC0FB781B0210464FF440711A46FFF7D4FF0A
S1131FD0BB68002B03D12848FEF730FCB8604FF0F3
S1131FE0FF33BB61FB681B6803F00203002B11D0B5
S1131FF0FB78012B07D0022B08D0002B00D008E07F
S11320001E4BBB6105E01E4BBB6102E01D4BBB6177
S113201000BF10E0FB78012B07D0022B08D0002B67
S113202000D008E0154BBB6105E0174BBB6102E033
S1132030164BBB6100BFFB78154AD35C7B617B68A0
S1132040DB00BA68D21A7B69796801FB03F3B2FB3F
S1132050F3F3013BFB61FB681B6803F00203002BF5
S113206004D0FB69002B01D10123FB61FA69FB68F1
S11320701A612037BD4680BD4041050080841E00A2
S1132080404B4C00809FD50040548900002D310105
S1132090E82A000080B582B000AF786039607B68C0
S11320A000221A647B68114ADA637A683B685B78B9
S11320B0002B01D0002300E00123104601211A4621
S11320C0FFF720FF3B6859683B689A683B681B7BB5
S11320D07868FFF763FF7A683B681B781046002135
S11320E01A46FFF70FFF0837BD4680BDCFFF070034
S11320F080B489B000AF78607B68A34A934205D16D
S1132100A24BBB61BB699B687B6101E0FC23F8E1E6
S11321107B685B6B3B613B6903F4C063002B14D0A9
S11321203B6903F40073002B03D0BB69FD225A7092
S113213007E03B6903F48063002B02D0BB69FE22F5
S11321405A70BB6909221A70C7E1BB691B78082B56
S113215000F2BB8101A252F823F000BF81210000EC
S1132160D321000059220000AB220000FD22000010
S11321704F230000DF2300001D240000AF240000D3
S11321807B695B8803F01003002B09D07B691B88F3
S11321901B0A9BB203F0060343F0F003FB610EE05D
S11321A07B691B8803F0FE03FB617B695B8803F09A
S11321B00203002B03D0FB6943F00103FB61BB69FD
S11321C001221A707B68FA69DA627B6801225A601C
S11321D083E13B6903F08003002B0CD07B688022F1
S11321E0DA63BB69FF225A70BB6908221A707B68E4
S11321F002225A602FE03B6903F04003002B2AD0EF
S11322007B684022DA637B695B8803F01003002B50
S113221008D0BB6902221A707B691B88DAB27B681A
S1132220DA6218E07B695B8803F00203002B0ED0AE
S1132230BB6907221A70BB691B797A69DB001344F6
S11322401B89012B07D17B6808225A6045E1BB69D1
S113225005221A7040E140E13B6903F08003002B42
S11322600CD07B688022DA63BB69FF225A70BB6999
S113227008221A707B6802225A6015E03B6903F059
S11322804003002B10D07B684022DA637B695B88B3
S113229003F00203002B03D0BB6903221A701BE175
S11322A0BB6905221A7017E117E17B695B8803F0AB
S11322B01003002B09D07B691B881B0A9BB203F017
S11322C0060343F0F003FB6104E07B691B8803F021
S11322D0FE03FB617B695B8803F00403002B03D0DE
S11322E0FB6943F00103FB61BB6904221A707B683C
S11322F001225A607B68FA69DA62EEE03B6903F016
S11323008003002B0CD07B688022DA63BB69FF2238
S11323105A70BB6908221A707B6802225A6015E061
S11323203B6903F04003002B10D07B684022DA6342
S11323307B695B8803F00403002B03D0BB6907228D
S11323401A7003E0BB6905221A70C5E0C5E0BB69D9
S11323505A88BB691B797969DB000B441B899A4253
S113236028D3BB6900225A80BB691B790133DAB2D6
S1132370BB691A717B695B8803F00403002B07D0E7
S1132380BB6903221A70A7E000C00040A40000202B
S11323907B695B8803F00103002B03D1BB691B79C4
S11323A0012B06D9BB6908221A707B6802225A6085
S11323B093E091E0BB691B797A69DB0013445A68A6
S11323C0BB695B88591C88B2B969488013441B787F
S11323D01A467B68DA62BB6906221A707DE03B69A3
S11323E003F08003002B0CD07B688022DA63BB6986
S11323F0FF225A70BB6908221A707B6802225A6055
S11324000BE03B6903F04003002B06D07B684022BD
S1132410DA63BB6905221A705EE05EE03B6903F093
S11324202003002B42D0BB691B797A69DB0013447B
S11324301B89FB607B68DB69FB72BB695B881A469E
S1132440FB689A420ED2BB691B797A69DB0013449C
S11324505A68BB695B88591C88B2B96948801344BF
S1132460FA7A1A70BB695B881A46FB689A420CD3E5
S1132470FB68012B02D17B6808225A60BB690822E1
S11324801A707B6802225A6010E07B6804225A604A
S1132490FB68012B0AD9BB695B881A46FB68013BC0
S11324A09A4203D17B6808225A6016E015E03B6922
S11324B003F48073002B07D07B684FF48072DA63D7
S11324C0BB6909221A7008E007E0BB69FB225A7055
S11324D0BB6909221A7000E01AE6BB691B78092B54
S11324E00BD17B6800221A64BB695B785BB2012B59
S11324F005D1BB6900225A7001E0012301E0BB69E8
S11325005B785BB218462437BD465DF8047B7047A0
S113251080B584B000AF786039607B68294A934203
S113252008D1294BFB607B689B6803F00103002BF7
S113253005D001E0FC233FE07B6820225A603B6821
S11325405B8803F00203002B03D03B681B89002B3C
S113255009D03B685B8803F00403002B05D03B687B
S11325601B8A002B01D1FC2326E0FB6800221A7091
S1132570FB6801225A70FB6800225A80FB68002223
S11325801A71FB683A689A607B68C0225A607B685B
S11325905B6B03F02003002B01D07B68DB697B6855
S11325A00A4ADA637B681B6C43F4FC627B681A6436
S11325B07868FFF79DFD03465BB218461037BD46A9
S11325C080BD00BF00C00040A4000020CFFF070072
S11325D080B485B000AF78601A4B5B69DBB203F05E
S11325E00F03DBB29B00FB73164B1B6903F0C003A4
S11325F09B09DAB2FB7B1343FB737B68FA7B9A700B
S1132600104B1B69DBB203F03F03DAB27B685A70EC
S11326100C4B9B6903F0F0031B09DBB21B01FB733A
S1132620084BDB6903F0F0031B09DAB2FB7B1343AD
S1132630FB737B68FA7B1A701437BD465DF8047B24
S1132640704700BFD0FF0FE080B485B000AF786062
S113265039607B6803F1C063FB60FB683A681A6009
S11326601437BD465DF8047B704700BF80B485B065
S113267000AF786039607B6803F18063FB60FB68BE
S11326803A681A601437BD465DF8047B704700BF92
S113269080B582B000AF03463960FB71FB79002B33
S11326A00DD0FB79012B0AD0FB79022B07D0FB79E3
S11326B0032B04D0FB79042B01D0FB79052BFA7989
S11326C013465B0013441B010C3303F1804303F5F1
S11326D020433A68012101FA02F218461146FFF735
S11326E0C5FF0837BD4680BD80B582B000AF034644
S11326F03960FB71FB79002B0DD0FB79012B0AD0DB
S1132700FB79022B07D0FB79032B04D0FB79042B34
S113271001D0FB79052BFA7913465B0013441B01A6
S11327200C3303F1804303F520433A68012101FA95
S113273002F218461146FFF787FF0837BD4680BDF1
S113274080B588B000AF786030480121FEF710F8FA
S11327507B681B682E4A934255D12E4BBB61B869E6
S11327600121FEF705F87B681A797B685B791046CE
S113277019460A220123FFF73FFB7B689A797B689D
S1132780DB79104619460A220123FFF735FB0023A3
S1132790FB6112E07B681A797B685B791046194605
S11327A0FFF7A2FF7B681A797B685B7910461946AC
S11327B0FFF76EFFFB690133FB61FB69082BE9DD61
S11327C07B681B6803225A647B681B687A68527AA8
S11327D011467A68127A12020A439A6401233B7200
S11327E001237B727B681B693B617B68DB68FB6050
S11327F07B681B7D3B757B681A6807F108031046EC
S11328001946FFF747FC2037BD4680BD404105000F
S113281000C000400072040080B584B000AF78604E
S113282039600E4BBB6078683968FFF771FE034668
S1132830FB7304E07868FFF75BFC0346FB7397F9CE
S11328400F30012B04D1BB685A1EBA60002BF1D1A2
S1132850FB7B5BB218461037BD4680BDE093040095
S113286080B400AF044BDB6C1B0EDBB21846BD46D4
S11328705DF8047B704700BFB081E00F80B586B07F
S113288000AF4FF050133B610023FB60FFF7E8FFFC
S11328900346FB723B461846FFF79AFEFB7A8E2BE3
S11328A022D81D4BD3F8B0307B601B4A7B6843F0C1
S11328B00403C2F8B03000237B610EE017483A6984
S11328C0FB6842EA03017A6913465B0013441B0167
S11328D0034419607B6901337B617B69052BEDD966
S11328E00D4A7B68C2F8B030FB7A8F2B07D80A4AAE
S11328F0094BDB6A23F07F0343F02003D3627B7828
S1132900012B05D1064A064B1B6843F004031360F0
S11329101837BD4680BD00BF00400E4000A00040F7
S113292064310E4080B58AB000AF78600B46FB700E
S1132930FB789BB23B8204237B8200233B72A4235B
S11329407B7207F108037B6102233B8307F10C03CD
S1132950FB6102233B8407F1100378681946FFF7F3
S11329605BFF034687F8273097F92730002B01D007
S1132970002300E0012318462837BD4680BD00BF70
S1132980B0B592B000AF284B07F124041D460FCD1B
S11329900FC495E8030084E80300244B07F11404F2
S11329A0186859689A68DB680FC4214B3C461D4679
S11329B028686968AA68EB680FC42B8A23800023FF
S11329C07B6400233B64FFF759FF07F114031846A7
S11329D0FEF770FF3B461846FEF7FAF91120042172
S11329E0FEF7C6F8032000210022FEF76BFA00F080
S11329F021F8032387F828300D2387F8293003238F
S1132A0087F82A300C2387F82B3007F12403184663
S1132A10FFF796FE7B6A18463C21FFF783FF0346C7
S1132A2087F83F30FEE700BFEC2A0000042B0000CB
S1132A30142B000080B500AF02480121FDF798FE79
S1132A4080BD00BF0025080008B5074B044613B13C
S1132A500021AFF30080054B1868836A03B19847DF
S1132A60204600F033F800BF00000000282B0000CF
S1132A7070B50E4B0E4CE41AA41000251E46A54258
S1132A8004D056F8253098470135F8E700F020F8CF
S1132A90084C094BE41AA41000251E46A54204D094
S1132AA056F8253098470135F8E770BD74000020CA
S1132AB074000020780000207400002002440346C3
S1132AC0934202D003F8011BFAE77047FEE700BF08
S1132AD0F8B500BFF8BC08BC9E467047F8B500BF07
S1132AE0F8BC08BC9E4670470809110800C00040A5
S1132AF0020B020A0F0F00000000000060670100D3
S1132B00000000000001080705000A00C8002000BA
S1132B10FFFF000001000000A00055010A20070685
S1132B20020A040700004300140000200000000013
S10B2B30F4D5FF7F0100000051
S1132B38005A620200800000C0EA2101C0EA2101B3
S1132B48C0EA2101000000000000000000000000AD
S1132B580000000000000000000000000000000069
S1132B6800000000262B0000000000000000000008
S1132B780000000000000000000000000000000049
S1132B880000000000000000000000000000000039
S1132B980000000000000000000000000000000029
S1132BA800000000ED000000C90000000000000063
S903019962
